:020000040000FA
:04000000FEEF01F01E
:08000800056ED8CF06F0E0CF31
:1000100007F00001E9CF0DF0EACF08F0E1CF09F0D9
:10002000E2CF0AF0D9CF0BF0DACF0CF0F3CF14F017
:10003000F4CF15F0FACF16F000C00FF001C010F0A9
:1000400002C011F003C012F004C013F09DA02CEF09
:1000500000F09EB061EF00F0F2A832EF00F0F2B2D3
:1000600067EF00F0F0A638EF00F0F0B06CEF00F0B2
:100070009DAA3EEF00F09EBA71EF00F00FC000F0B5
:1000800010C001F011C002F012C003F013C004F060
:100090000E8E0DC0E9FF08C0EAFF09C0E1FF0AC0EB
:1000A000E2FF0BC0D9FF0CC0DAFF14C0F3FF15C08C
:1000B000F4FF16C0FAFF055007C0E0FF06C0D8FFE6
:1000C0001000CF6ACE6A20809E903EEF00F0208222
:1000D0001F2AF2923EEF00F020821F06F0903EEFC2
:1000E00000F09EAAFED7AECF1EF020849E9A3EEF6F
:1000F00000F0006A016A2C50D8902DB00026003222
:1001000001322DB20026003201322DB40026003219
:1001100001322DB60026003201322DB80026003201
:1001200001322DBA0026003201322DBC00260032E9
:1001300001322DBE0026003201320BEF01F02A6A97
:10014000286A0A0E296E276A2550261003E1000E40
:10015000016EC1D02A502A2A036A2524E96E26504E
:100160000320EA6EEFCF2BF02B502D080DE1010E8E
:10017000286E2A502A2A036A2524E96E2650032075
:10018000EA6EEFCF2BF00DD02B502B080AE12A504E
:100190002A2A036A2524E96E26500320EA6EEFCF4F
:1001A0002BF02B502F08D8B08ED02B503908D8A068
:1001B0008AD02B50300821E1036A2A502524E96EA9
:1001C00026500320EA6EEF5078080AE0036A2A50AE
:1001D0002524E96E26500320EA6EEF5058080DE101
:1001E000100E296E2A2A2A502A2A036A2524E96E2B
:1001F00026500320EA6EEFCF2BF029500A081BE1AE
:100200002B502F0817E22B50390814E30A0E2C6EDE
:1002100027C02DF06ED7300E2B5C0124276E2A509C
:100220002A2A036A2524E96E26500320EA6EEFCFBE
:100230002BF0E6D748D02950100845E12B50600834
:1002400006E22B507A0803E32B50DF0B01D02B5032
:100250002B6E2B502F0803E22B50390806E22B504F
:10026000400831E22B5046082EE32B502F080CE2B9
:100270002B50390809E327382C6EF00E2C16300E5F
:100280002B5C2C24276E09D027382C6EF00E2C16F0
:10029000410E2B5C0A0F2C24276E2A502A2A036A4F
:1002A0002524E96E26500320EA6EEFCF2BF02B5069
:1002B000600806E22B507A0803E32B50DF0B01D0D5
:1002C0002B502B6EC6D7282C04D029500A0801E1E8
:1002D000276C27C001F04DEF02F02C50016A2B5C17
:1002E00003E22BC000F00CD0006A080E2D6E2B36F6
:1002F00000362C50005CD8B0006E01362D2EF7D79A
:10030000000C200E26A8300E276E25C000F025AE6A
:1003100007D0001E002A00C025F02D0E276E268E65
:10032000015025C02BF0640E2C6ED7DF00C025F0E5
:10033000300E0124286E25C02BF00A0E2C6ECDDF66
:10034000300E00242A6E300E0124296E27C000F0E2
:1003500026A602D026AE269426B80BD026AE22D0F2
:1003600026B420D000C028F026B21CD000C029F04E
:1003700019D0300E285C16E100C028F0200E276E40
:1003800026A604D02694268226AE2692300E295C1C
:1003900009E100C029F0200E286E26A6F7D7269284
:1003A00026AE269026A404D027509EA8FED7AD6E78
:1003B00026A204D028509EA8FED7AD6E26A004D059
:1003C00029509EA8FED7AD6E2A509EA8FED7AD6ECE
:1003D00088EF02F0EA6A250EE96EEF500DE0060E96
:1003E000016E006A002EFED7012EFBD77B0E006E39
:1003F000002EFED7EF2EF3D7ABEF02F0F86AD09EB7
:100400000D8EEA6AE96A810EAF6EA60EAC6E900E92
:10041000AB6EC180C182C184C196070EB46E186AEA
:10042000196A1F6A20902092209421902192226ABA
:10043000236A246AC180C182C184C196C290969801
:10044000C69A949A94889496010EC66E000EC76E52
:10045000D190800ED56EB50ECD6E000ECA6E000E18
:10046000CB6E070EB46E9650100E006E002EFED7A7
:100470000000B450A19CB56A9D80F288F0869D8AE8
:10048000C00EF212CF6ACE6A96908D8020A408D05A
:100490002094266A1E0E256E52D6219001B021802E
:1004A00021A00DD020A00AD02090232A2350060896
:1004B00005E2236A939E8A9E939C8A7C04D0939C37
:1004C0008A9C939E8A8E20A227D020921FBE06D09F
:1004D0001F50090803E2222A1F6A0CD01FAE04D065
:1004E000225202E11F6A06D01FBE01D003D0090EBE
:1004F0001F6E22062250090801E2226A22500A0DCC
:10050000F3501F24246E24C025F01F0E266EF9D64A
:10051000200E9EA8FED7AD6E9690969296948D6A08
:1005200021A209D0956A1FC08CFF9690969296944E
:10053000020E8D6E08D0956A22C08CFF969096921E
:100540009694010E8D6E21A202D0219201D02182BB
:0A055000320E256E3FD79AD7030044
:020000040030CA
:0E00000000270F0E000085000FC00FE00F401C
:00000001FF
;PIC18F458
