:020000040000FA
:0400000001EF02F01A
:08000800056ED8CF06F0E0CF31
:1000100007F00001E9CF0DF0EACF08F0E1CF09F0D9
:10002000E2CF0AF0D9CF0BF0DACF0CF0F3CF14F017
:10003000F4CF15F0FACF16F000C00FF001C010F0A9
:1000400002C011F003C012F004C013F09DA02CEF09
:1000500000F09EB061EF00F0F2A832EF00F0F2B2D3
:1000600078EF00F0F0A638EF00F0F0B080EF00F08D
:100070009DAA3EEF00F09EBA88EF00F00FC000F09E
:1000800010C001F011C002F012C003F013C004F060
:100090000E8E0DC0E9FF08C0EAFF09C0E1FF0AC0EB
:1000A000E2FF0BC0D9FF0CC0DAFF14C0F3FF15C08C
:1000B000F4FF16C0FAFF055007C0E0FF06C0D8FFE6
:1000C000100021809E903EEF00F0EA6A2F0EE96E4C
:1000D000EF500DE0060E016E006A002EFED7012ED5
:1000E000FBD77B0E006E002EFED7EF2EF3D7000C51
:1000F0002182202AC80E2F6EE8DFF2923EEF00F038
:1001000021822006C80E2F6EE0DFF0903EEF00F057
:100110009EAAFED7AECF1FF021849E9A3EEF00F03C
:10012000006A016A2D50D8902EB0002600320132AC
:100130002EB20026003201322EB4002600320132E7
:100140002EB60026003201322EB8002600320132CF
:100150002EBA0026003201322EBC002600320132B7
:100160002EBE00260032013222EF01F02B6A296AEE
:100170000A0E2A6E286A2650271003E1000E016E2F
:10018000C1D02B502B2A036A2624E96E2750032066
:10019000EA6EEFCF2CF02C502D080DE1010E296EE8
:1001A0002B502B2A036A2624E96E27500320EA6E7F
:1001B000EFCF2CF00DD02C502B080AE12B502B2A1E
:1001C000036A2624E96E27500320EA6EEFCF2CF055
:1001D0002C502F08D8B08ED02C503908D8A08AD0F7
:1001E0002C50300821E1036A2B502624E96E275059
:1001F0000320EA6EEF5078080AE0036A2B502624A9
:10020000E96E27500320EA6EEF5058080DE1100EFA
:100210002A6E2B2A2B502B2A036A2624E96E27509C
:100220000320EA6EEFCF2CF02A500A081BE12C5075
:100230002F0817E22C50390814E30A0E2D6E28C03F
:100240002EF06ED7300E2C5C0124286E2B502B2AFA
:10025000036A2624E96E27500320EA6EEFCF2CF0C4
:10026000E6D748D02A50100845E12C50600806E235
:100270002C507A0803E32C50DF0B01D02C502C6E4D
:100280002C502F0803E22C50390806E22C5040086D
:1002900031E22C5046082EE32C502F080CE22C5053
:1002A000390809E328382D6EF00E2D16300E2C5C1F
:1002B0002D24286E09D028382D6EF00E2D16410EF3
:1002C0002C5C0A0F2D24286E2B502B2A036A26241F
:1002D000E96E27500320EA6EEFCF2CF02C50600817
:1002E00006E22C507A0803E32C50DF0B01D02C508F
:1002F0002C6EC6D7292C04D02A500A0801E1286C9C
:1003000028C001F04EEF02F02D50016A2C5C03E290
:100310002CC000F00CD0006A080E2E6E2C36003671
:100320002D50005CD8B0006E01362E2EF7D7000C91
:10033000200E27A8300E286E26C000F026AE07D06B
:10034000001E002A00C026F02D0E286E278E0150B8
:1003500026C02CF0640E2D6ED7DF00C026F0300EC4
:100360000124296E26C02CF00A0E2D6ECDDF300E32
:1003700000242B6E300E01242A6E28C000F027A620
:1003800002D027AE279427B80BD027AE22D027B4AF
:1003900020D000C029F027B21CD000C02AF019D00C
:1003A000300E295C16E100C029F0200E286E27A629
:1003B00004D02794278227AE2792300E2A5C09E1C9
:1003C00000C02AF0200E296E27A6F7D7279227AE65
:1003D000279027A404D028509EA8FED7AD6E27A250
:1003E00004D029509EA8FED7AD6E27A004D02A5075
:1003F0009EA8FED7AD6E2B509EA8FED7AD6E8EEF99
:1004000002F0F86AD09E0D8EEA6AE96A810EAF6E3C
:10041000A60EAC6E900EAB6EC180C182C184C19637
:10042000070EB46E196A1A6A206A219021922194EB
:1004300022902292236A246A256AC180C182C184E3
:10044000C196C2909698C69A949A94889496010EF2
:10045000C66E000EC76ED190800ED56EB50ECD6EF5
:10046000000ECA6E000ECB6E070EB46E9650100EC4
:10047000006E002EFED70000B450A19CB56A9D808E
:10048000F288F0869D8AC00EF212CF6ACE6A21A44D
:1004900008D02194276A1F0E266E68D6229001B0DC
:1004A000228022A01DD021A01AD0CF6ACE6A21902E
:1004B000242A24C02CF00A0E2D6E26DF005206E1FD
:1004C000246A939E8A9E939C8A8C09D024C02CF027
:1004D000050E2D6E19DF005202E1939C8A9C04D018
:1004E000939C8A9C939E8A8E21A21CD0219220509C
:1004F000090803E2232A206A03D0090E206E236E26
:100500002350090801E2236A23500A0DF3502024E6
:10051000256E25C026F01F0E276E0AD7200E9EA836
:10052000FED7AD6E9690969296948D6A22A209D0CF
:10053000956A20C08CFF969096929694010E8D6ECF
:1005400008D0956A23C08CFF969096929694020EDE
:100550008D6E22A202D0229201D02282186AF2BEAF
:10056000188EF29E0A0E2F6EB0DD18BEF28E8FD757
:02057000030086
:020000040030CA
:0E00000000270F0E000085000FC00FE00F401C
:00000001FF
;PIC18F458
